:020000040800F2
:10000000485E0020E90200083F060008F9050008E4
:100010003D06000875050008D10900080000000031
:10002000000000000000000000000000290200089D
:10003000770500080000000085020008610900083B
:100040000303000803030008030300080303000878
:100050000303000803030008030300080303000868
:100060000303000803030008030300080303000858
:100070000303000803030008030300080303000848
:100080000303000803030008030300080303000838
:100090000303000803030008030300080303000828
:1000A0000303000803030008030300080303000818
:1000B0000303000803030008030300080303000808
:1000C00003030008030300080303000803030008F8
:1000D00003030008030300080303000803030008E8
:1000E00003030008030300080303000803030008D8
:1000F00003030008030300080303000803030008C8
:1001000003030008030300080303000803030008B7
:1001100003030008030300080303000803030008A7
:100120000303000803030008030300080303000897
:100130000303000803030008030300080303000887
:100140000303000803030008030300080303000877
:100150000303000803030008030300080303000867
:100160000303000803030008030300080303000857
:100170000303000803030008030300080303000847
:10018000030300080303000800F002F800F03CF845
:100190000AA090E8000C82448344AAF10107DA45E2
:1001A00001D100F031F8AFF2090EBAE80F0013F0F8
:1001B000010F18BFFB1A43F001031847541C00003D
:1001C000741C0000103A24BF78C878C1FAD85207CE
:1001D00024BF30C830C144BF04680C6070470000C1
:1001E0000023002400250026103A28BF78C1FBD840
:1001F000520728BF30C148BF0B6070471FB501F0E0
:1002000001FE1FBD10B510BD00F059F91146FFF7F2
:10021000F5FF00F031FC00F077F903B4FFF7F2FFCF
:1002200003BC00F07FF900002C4B19680868B0E8A7
:10023000F04F80F30988BFF36F8F4FF0000080F319
:10024000118870470000000008480068006880F3CB
:1002500008884FF0000080F3148862B661B6BFF3DF
:100260004F8FBFF36F8F00DF00BF00BF08ED00E0CE
:10027000DFF80C00016841F470010160704700BFB5
:1002800088ED00E0EFF30980BFF36F8F134B1A681E
:100290001EF0100F08BF20ED108A20E9F04F10600B
:1002A00009B44FF0500080F31188BFF34F8FBFF3B4
:1002B0006F8F01F0E1F94FF0000080F3118809BC65
:1002C00019680868B0E8F04F1EF0100F08BFB0ECD6
:1002D000108A80F30988BFF36F8F704720000020D9
:1002E000EFF3058070470000094880470948004740
:1002F000FEE7FEE7FEE7FEE7FEE7FEE7FEE7FEE7D6
:10030000FEE7FEE704480549054A064B7047000032
:10031000750900088901000848580020485E00203F
:10032000485A0020485A0020032A40F2308010F03A
:10033000030C00F0158011F8013BBCF1020F624480
:1003400098BF11F801CB00F8013B38BF11F8013B11
:10035000A2F1040298BF00F801CB38BF00F8013BBE
:1003600011F0030300F07980083AC0F0088051F8DA
:10037000043B083A51F804CBA0E80810F5E7121D39
:100380005CBF51F8043B40F8043BAFF30080D20758
:1003900024BF11F8013B11F801CB48BF11F8012B24
:1003A00024BF00F8013B00F801CB48BF00F8012B47
:1003B000704702F0FF0343EA032242EA024200F0E0
:1003C00002B84FF000020429C0F0128010F0030CB4
:1003D00000F01B80CCF1040CBCF1020F18BF00F838
:1003E000012BA8BF20F8022BA1EB0C0100F00DB8E7
:1003F0005FEAC17C24BF00F8012B00F8012B48BF45
:1004000000F8012B70474FF0000200B513469446E8
:100410009646203922BFA0E80C50A0E80C50B1F15C
:100420002001BFF4F7AF090728BFA0E80C5048BF70
:100430000CC05DF804EB890028BF40F8042B08BF0E
:10044000704748BF20F8022B11F0804F18BF00F80A
:10045000012B704770477047704710B5203AC0F0C5
:100460000B80B1E81850203AA0E81850B1E81850B5
:10047000A0E81850BFF4F5AF5FEA027C24BFB1E8F2
:100480001850A0E8185044BF18C918C0BDE8104063
:100490005FEA827C24BF51F8043B40F8043B08BF6C
:1004A0007047D20728BF31F8023B48BF11F8012B33
:1004B00028BF20F8023B48BF00F8012B7047754663
:1004C00000F02CF8AE4605006946534620F00700C0
:1004D000854618B020B5FFF715FFBDE820404FF066
:1004E00000064FF000074FF000084FF0000B21F01E
:1004F0000701AC46ACE8C009ACE8C009ACE8C009EB
:10050000ACE8C0098D46704710B50446AFF30080D3
:100510002046BDE81040FFF780BE0000004870474D
:10052000E857002001491820ABBEFEE72600020074
:10053000704700007CB50121022000F085F9012000
:100540008DF8040000228DF8062002218DF8051098
:10055000074D4FF480648DF80700009469462846E3
:1005600000F00AF82146284600F042F87CBD000061
:1005700000040240FEE77047F0B5002201274FF06B
:10058000030C0B6807FA02F52B40AB422CD106682E
:1005900053000CFA03F4A64306600E79D0F800E08D
:1005A0009E4046EA0E0606600E79012E01D0022E0C
:1005B00012D18668A64386604E79D0F808E09E4046
:1005C00046EA0E0686604668AE43466045688E7908
:1005D0009640B6B235434560C568A543C560CC7941
:1005E0009C40C3681C43C460521C102AC9D3F0BD90
:1005F0004183704701837047FEE700007CB501210D
:10060000102000F021F901208DF8040000228DF85F
:10061000062003218DF80510074D4FF480648DF8F6
:100620000700009469462846FFF7A6FF21462846A2
:10063000FFF7E0FF7CBD000000100240FEE77047BE
:100640000249084302490860704700000000FA05AB
:100650000CED00E010B40021084B0A46002003EB2B
:10066000C004401CC0B262548028F8D3491CC9B2EF
:100670000829F3D310BC00F09BB800009C000020B8
:100680007CB50121102000F0DFF801268DF8046010
:1006900000244FF4F0708DF8064000908DF805406E
:1006A0008DF8074069464048FFF766FF01210807BB
:1006B00000F0D6F8012000F0C1F8002000F0DCF8CE
:1006C000002000F0BBF8394DC5F89C42642005F5C8
:1006D000277500F09BF92E600021AE2000F08CF809
:1006E0000021D52000F088F80021502000F084F887
:1006F0000021A82000F080F800213F2000F07CF8C5
:100700000021D32000F078F80021084600F074F8AA
:100710000021402000F070F800218D2000F06CF8DE
:100720000021142000F068F80021202000F064F877
:100730000021022000F060F80021A12000F05CF808
:100740000021C02000F058F80021DA2000F054F811
:100750000021122000F050F80021812000F04CF818
:100760000021EF2000F048F80021D92000F044F8E3
:100770000021F12000F040F80021DB2000F03CF8DF
:100780000021302000F038F80021A42000F034F8D7
:100790000021A62000F030F80021AF2000F02CF856
:1007A000FFF758FF7CBD00000010024000004242ED
:1007B00070B5104E002505F1B000C0B2002100F068
:1007C0001BF80021084600F017F80021102000F067
:1007D00013F8002406EBC4000121405D00F00CF882
:1007E000641CE4B2802CF5D36D1CEDB2082DE2D36D
:1007F00070BD00009C00002030B500230E4A01248B
:1008000011B1C2F8A04201E0C2F8A0320021C2F842
:100810009432050602D5C2F8984201E0C2F8983237
:10082000C2F894424006491C000EC9B20829EED312
:10083000C2F8A04230BD00000000424201490862F7
:100840007047000000000E42044A0029116801D0E0
:10085000014300E0814311607047000030380240DE
:10086000044A0029116801D0014300E0814311606E
:100870007047000040380240054900220A700A70A3
:10088000012802D0042801D105200870704700001B
:10089000703802400CB50022274900920192086886
:1008A00040F4803008604FF4A043086800F4003042
:1008B00001900098401C0090019810B9009898424F
:1008C000F3D10868800334D5012001901A484030E4
:1008D000026842F0805202601848026842F44042C6
:1008E00002601548083002680260026842F4004263
:1008F0000260026842F4A0520260031F104A1A60AC
:100900000A6842F080720A600A689201FCD50D49BB
:1009100040F205720A60016821F00301016001687C
:1009200041F0020101600168C1F381010229FAD19D
:100930000CBD01920CBD0000003802400070004068
:1009400008544007003C02404FF0E02104280869A9
:1009500003D020F004000861704740F00400FAE77B
:1009600010B501F059F8012803D0BDE8104000F09F
:10097000F5BE10BD124810B5016841F47001016068
:100980001048016841F0010101600E4A002108325F
:10099000116002680C4B1A400260031D0B4A1A607A
:1009A000026822F48022026006480C300160FFF7E2
:1009B00071FF03494FF000608039086010BD0000EE
:1009C00088ED00E000380240FFFFF6FE1030002402
:1009D000FEE7000010B504460420FFF7B5FF0A4803
:1009E0004FF47A71047014FB01F1012242804FF040
:1009F000E020026942F0020202614161016941F0B6
:100A00000101016110BD00001800002070B504460E
:100A100001F002F801280BD0094D6888844203D305
:100A2000B4FBF0F000F048FD6888B4FBF0F070BD56
:100A30004FF47A706043BDE8704000F003B80000E6
:100A40001800002070B54FF0E02500216C69094ABC
:100A5000AB6912785043AA699A42FCD002D2A3EB48
:100A6000020302E0A4EB0206334419441346814218
:100A7000F1D370BD180000201CB500F02FFC074911
:100A80000420CDE900018201002305A1074800F000
:100A900095FF00F0BDFD00201CBD000000000020FF
:100AA00073746172745F7461736B0000C11200082B
:100AB0002DE9F0411E4D0F460446EE682868001DE2
:100AC00000F01CFC38B9286890F82C1001208840F0
:100AD000296981432961601C15D1A7B115492A688C
:100AE000486890602B688268DA602A688368121D03
:100AF0005A602A68121D8260286841610868401C9B
:100B00000860BDE8F08128683444B4424460296834
:100B100005D2E86BBDE8F041091D00F017BCA86BD9
:100B2000091D00F013FCA86A8442EAD2AC62E8E72F
:100B300020000020AC0700202DE9F041044600F021
:100B400029FC354EB068401CB0603068334F10B19E
:100B5000706930B32BE03460B068012827D10025DC
:100B600005EB850007EB800000F0E2FB6D1C202DFB
:100B7000F6D32B4800F0DCFB2948143000F0D8FBFA
:100B80002748283000F0D4FB25483C3000F0D0FB4B
:100B90002348503000F0CCFB2148B0631430F063A0
:100BA00005E03068E16AC06A884200D83460706A43
:100BB0000121401C70626064E06A32698140114327
:100BC000316100EB800007EB80004068A060816825
:100BD000E1608268211D51608160E06A00EB800065
:100BE00007EB8001616157F82010491C47F820107D
:100BF00000F0E4FB706900280CD03068E16AC06A3C
:100C0000884207D207494FF080500860BFF34F8FEA
:100C1000BFF36F8FBDE8F08120000020DC040020CE
:100C20005C07002004ED00E010B500F0B3FB0E4CB3
:100C30002068A0B90D4800F07BFB0C48143000F090
:100C400077FB0A48E0601430206100221021052063
:100C500000F09AFD206010B105A100F0EDFBBDE8A9
:100C6000104000F0ABBB000060000020C007002077
:100C7000546D72510000000030B4026C0B46002A23
:100C80000BD0C1681144C1608468A14201D30168DE
:100C9000C16030BC1846FFF747BB30BC70472DE938
:100CA000F041856B174604460026026C82B1C7B13D
:100CB000E068FFF739FBE168206C091AE1602268FF
:100CC000914202D2A168081AE060022F16D017E004
:100CD0002068A8B9A06800F03DFF06460020A0608B
:100CE0000EE06068FFF720FB216C606808446060DC
:100CF000A168884204D32068606001E005B16D1EE0
:100D00006D1CA5633046BDE8F08110B50446006B4C
:100D100000F05EFB2046BDE8104000F059BB00002B
:100D20000E484FF4A041420706D0C01D0B4920F0E9
:100D30000700411AC1F5A041094B00220144C3E953
:100D400000020839143B21F0070119604A600A606B
:100D50000A1AC0E900129A605A607047E80700203A
:100D600088000020134E144DA6F52F774FF08058C1
:100D7000DFF8489011E000F00DFBF068C468201D1A
:100D800000F0BCFAA868401EA8606868401E686051
:100D900000F014FB2046FFF7B8FF68680028EAD18E
:100DA00038680128F9D9C9F80080BFF34F8FBFF325
:100DB0006F8FF2E7980700202000002004ED00E08C
:100DC0002DE9F0470E46DDE9098417468246910079
:100DD0009946089DA522206BFFF7EBFA6FF00301FF
:100DE000206B01EB8701084420F0070766B1002063
:100DF0002218315C82F83410315C11B1401C10288B
:100E0000F6D3002084F84300202D00D31F25E5628F
:100E1000201DE56400F097FA04F1180000F093FA41
:100E20002461C5F120006462A0614A4651463846FB
:100E300000F030FA2060B8F1000F01D0C8F800408F
:100E4000BDE8F08730B5114900E011460A688242DA
:100E5000FBD34B685C18844203D140681844486057
:100E6000084643681C18944209D1084C143C246875
:100E7000A24209D052681A4442600A6812680260AD
:100E8000814200D0086030BD0460F9E7880000208E
:100E900070B5002441600B4D0061914206D8D11A13
:100EA0008269914206D2011D286907E09A4203D265
:100EB000994201D3012403E0011DE86800F046FADD
:100EC000204670BD6000002010B5044600F062FAB4
:100ED000A06B20B1002400F071FA204610BD01245F
:100EE000F9E7F1B500260098846CA06BA06BE16B6C
:100EF000884210D294F94550002269462046FFF7F7
:100F0000CEFE0646681C08D000F00CFA854202D2DC
:100F10006D1C84F845503046F8BD606A0028FAD050
:100F200004F1240000F05EFE0028F4D00126F2E770
:100F300070B506460D480D46C068C068C468201DDF
:100F400000F0DCF994F82800410705D52A4631461F
:100F5000204600F0B5F803E000F0FE0084F8280019
:100F60002046216ABDE8704008470000600000206C
:100F700070B586B0364E61E00098002806DADDE9EB
:100F80000201019A90470098002857DB029C606993
:100F900010B1201D00F0B2F904A800F0B3F8054626
:100FA00000980A284AD2DFE800F0490505282E3DBE
:100FB0000505282E94F828002A4640F0010084F800
:100FC00028000198A169034601442046FFF760FF0D
:100FD00038B394F82800410707D50198A1692A463B
:100FE0000144204600F06CF803E000F0FE0084F8B5
:100FF0002800216A2046884720E014F8280F00F0D6
:10100000FE0020701AE094F828002B4640F0010002
:1010100084F828000198A06141191A462046FFF77C
:1010200037FF0BE094F82800810703D4204600F036
:10103000CFF903E000F0FE0084F8280000226946A2
:10104000306800F015FC002896D106B070BD000095
:1010500060000020F8B50D46064600F005FB684626
:1010600000F050F80446009810B100F021FEF8BDE1
:101070001148ADB101690968D9B10025311B2A4673
:10108000006800F0F7F900F013FE0028EFD10B49DB
:101090004FF080500860BFF34F8FBFF36F8FF8BDE4
:1010A000A642EBD800F004FE21463046FFF740FF91
:1010B000F8BD0125E2E700006000002004ED00E03B
:1010C00070B516460C46054604E0A869296A044432
:1010D00028468847A8692346011932462846FFF763
:1010E000D7FE0028F1D170BD0548816B096821B198
:1010F000816BC9680968816270474FF0FF31FAE778
:10110000200000202DE9F041064600F093FC0E4D32
:101110000446A868844214D24FF0FF3704E0C06848
:1011200039460068FFF704FFE86801680029F6D136
:101130002969C5E90310012030602046AC60BDE894
:10114000F0810020F8E7000060000020502080F3CC
:101150001188BFF34F8FBFF36F8FFEE7084CE06835
:10116000016839B1002139B10020FFF773FFFFF7A3
:10117000FFFEF4E70121F6E7C0680068F5E700002C
:10118000600000202DE9F041044600F003F994F9D5
:10119000455004F124060FE0A06C18B12046FFF77B
:1011A000A0FE04E0606A48B1304600F01BFD08B1C3
:1011B00000F0F6F96D1E6DB2002DEDDC4FF0FF363C
:1011C00084F8456000F0FAF800F0E4F894F944502F
:1011D00004F1100709E0206948B1384600F002FD2B
:1011E00008B100F0DDF96D1E6DB2002DF3DC84F85E
:1011F0004460BDE8F04100F0E1B8000070B504467D
:10120000002500F031FA224E306808B9FFF788FD5A
:10121000CCB304F00700C0F11000C1438C4232D8B7
:10122000211800292FDD706881422CD8184A143209
:101230001046046801E0224604466068884202D2F3
:1012400020680028F7D1306884421CD015682068D7
:10125000106060680835421A102A04D9601842608C
:101260006160FFF7EFFD61687068401A7060B268F6
:10127000904200D2B06041F00040606000202060E9
:10128000F068401CF06000F013FD284670BD0000BF
:101290007400002010B5031F4FF080741C601B1FEA
:1012A00021F001011960191F044B0B6014390A6009
:1012B000091F6FF0020244380A6010BD4D1100088A
:1012C00010B500F067F80448006800F011F9BDE8B7
:1012D000104000F073B800000000002010B54FF47B
:1012E0004070FFF7ADF9A820FFF774FBFFF786F910
:1012F000FFF720F9BDE81040FFF7C2B9D0E901328D
:1013000001699A60D0E901235A604A68824201D19A
:1013100082684A60002202610868401E086008680E
:1013200070470000014880687047000020000020DE
:1013300000F108014FF0FF32C0E90112C160016104
:1013400000210160704700210161704730B50C68D1
:10135000621C02D000F1080202E0026904E01A46B1
:1013600053681D68A542FAD953684B6099608A603A
:10137000516008610168491C016030BD42684A60E3
:1013800093688B6093685960916008610168491C9B
:1013900001607047502080F31188BFF34F8FBFF377
:1013A0006F8F04494868401C4860012801D10248F9
:1013B000006870479000002004ED00E00349486891
:1013C000401E486001D180F31188704790000020D2
:1013D00070B500281BD0A0F108046068002816DA58
:1013E0002168002913D120F00040606000F03CF932
:1013F000074D60686968084468602046FFF722FD71
:101400002869401C2861BDE8704000F051BC70BDE7
:10141000740000204FF0E020002101618161054946
:101420004FF47A720968B1FBF2F1491E416107215C
:10143000016170470400002070B50023002915D019
:101440000B4D002205EBC2046668864202D105EB13
:10145000C20307E01BB955F8326006B92346521C97
:10146000082AEFD3002B01D0C3E9001070BD0000A3
:101470009C04002070B515460E460446FFF78AFF0F
:1014800094F944100020491C01D184F8440094F9D7
:101490004510491C01D184F84500FFF78FFFA06B70
:1014A00028B92A46314604F1240000F091F820467C
:1014B000BDE87040FFF766BE10B502000BD00A48C9
:1014C000406B00F0D1F800211046FFF7F1FA00F070
:1014D000EFFB002807D105494FF080500860BFF3AB
:1014E0004F8FBFF36F8F10BD2000002004ED00E090
:1014F00070B50446FFF74EFF214D04B92C68201D3E
:10150000FFF7FCFE58B9E06A1E4A00EB800152F872
:10151000211021B901218140286988432861A06AEE
:1015200018B104F11800FFF7E9FE686A401C686210
:101530002868844207D1211D1348FFF71FFF686800
:10154000401C686004E0A868401EA860FFF7CCFD5E
:10155000FFF734FF2868844202D02046FFF7D5FB0E
:10156000686900280BD02868844208D1686B074955
:101570004FF080500860BFF34F8FBFF36F8F70BD87
:1015800020000020DC0400209807002004ED00E08B
:1015900002490A6A0260C968416070472000002061
:1015A00001490120C861704720000020024610B5A3
:1015B00006480C46016810461831FFF7C7FE204662
:1015C000BDE810400121FFF773BA000020000020A1
:1015D000F0B40E4B0C4641681D68E9618D681E68C9
:1015E00035621D688E68183575601D6818358D6008
:1015F000196888620168491C01600AB14FF0FF3424
:101600002046F0BC1146FFF753BA0000200000202E
:101610007CB511480025CDE900502B4682220FA150
:10162000104800F0CBF90C4C2C3C012812D100F0F2
:10163000CBFB01280ED1502080F31188BFF34F8FD0
:10164000BFF36F8F4FF0FF30A06201206061E56053
:1016500000F036F8206B7CBD4C00002049444C451E
:1016600000000000650D00080248416B491C416301
:1016700070470000200000200F4A506B10B101207D
:10168000D06170470020D06110690C49B0FA80F039
:10169000C0F11F0000EB800051F8203001EB80000A
:1016A00000F10803416849684160994201D14968E5
:1016B0004160C8681060704720000020DC040020F2
:1016C0001CB5224801680068214908780190FF2074
:1016D000087008788DF800009DF800009DF8000063
:1016E0009DF800001B4C00F0500020700720A06007
:1016F00007E0A068401EA0609DF8000040008DF843
:1017000000009DF800000006F3D4207A000200F4E7
:10171000E060A060019808700C482030016841F436
:1017200070010160016841F070410160FFF772FED5
:1017300000206060FEF79CFD0748016841F04041D1
:101740000160FEF781FD00201CBD000000ED00E0FF
:1017500000E400E09000002034EF00E010B55020DD
:1017600080F31188BFF34F8FBFF36F8F00F068F9DC
:1017700018B104494FF080500860002080F31188B0
:1017800010BD000004ED00E02DE9F04117460E46C3
:1017900005004FF000041CD0601EB0FBF5F0B04215
:1017A00017D305FB06F010F1550F12D85430FFF790
:1017B00025FD04000DD004F154006EB12060C4E991
:1017C0000F562046012100F009F884F850700021DE
:1017D000A1642046BDE8F0812460F0E72DE9F041E6
:1017E0000E4604004FF001053BD0E06BC0B3AF1EC6
:1017F000B7FBF0F1206C814233D3FFF7CBFDD4E986
:101800000F20216802FB0011A1600021A163216863
:1018100061600A46D4E90F01401E00FB0121204609
:10182000E16000F8447F477004F1100046B1FFF713
:101830007FFD04F12400FFF77BFDFFF7BFFD11E002
:1018400021690029F9D000F0CDF90028F5D0074929
:101850004FF080500860BFF34F8FBFF36F8FECE7FE
:10186000FFE700252846BDE8F081000004ED00E018
:101870002DE9F74783B08A460446002600F0CCF8ED
:1018800000274FF08058DFF8D890FFF783FDA56B55
:10189000C5B151462046FFF7EFF96D1EA5632069DB
:1018A00050B104F1100000F09DF928B1C9F8008092
:1018B000BFF34F8FBFF36F8FFFF780FD012006B09E
:1018C000BDE8F087059808B11EB106E0FFF776FD88
:1018D00027E06846FFF75CFE0126FFF76FFDFFF784
:1018E000C3FEFFF757FD94F94400401C01D184F872
:1018F000447094F94500401C01D184F84570FFF70D
:101900005DFD05A9684600F02DF8002820460AD0A4
:10191000FFF738FC00F0CCF92046FFF7D5FA002895
:10192000B3D00020CBE7FFF7CFFA90B104F1240049
:101930000599FFF73BFE2046FFF724FC00F0B8F9BD
:101940000028A2D1C9F80080BFF34F8FBFF36F8F7B
:101950009BE72046FFF716FC00F0AAF995E7000088
:1019600004ED00E02DE9F0410D460446FFF712FDBD
:10197000114EF26863682868D11A471C0AD027689C
:10198000D6F820C00026674506D0934204D801242B
:101990002E600BE0002409E0884205D9401A286037
:1019A0002046FFF7F5FDF5E701242E60FFF706FD61
:1019B0002046BDE8F0810000200000202DE9FF5FF7
:1019C0008346DDE90E87994616468A469000FFF762
:1019D00015FC05001DD05C20FFF710FC040015D09D
:1019E0005C21FEF710FD25630021CDE90241CDE920
:1019F00000874B46324651465846FFF7E1F92046EC
:101A0000FFF79AF8012004B0BDE8F09F2846FFF7E1
:101A1000DFFC4FF0FF30F6E70548416919B1406B34
:101A200018B1002070470120704702207047000065
:101A3000200000200148C0687047000020000020FE
:101A40002DE9F041414E0025706B28B1B069401C72
:101A5000B0612846BDE8F081F468641CF4600AD1E6
:101A6000B06B0068B06BF16BB163F063306A401C1F
:101A70003062FFF739FBB06ADFF8D4E084420BD361
:101A80004FF0000CB06B0068A0B1B06BC068C168CB
:101A90004868844211D2B0623068C06A00EB8000AE
:101AA0005EF82000012800D90125F0690028D0D077
:101AB0000125CEE74FF0FF30EDE7D1E9023248696A
:101AC0009A60D1E902235A6043680A1D934201D10A
:101AD000CB684360C1F814C003685B1E0360886A6A
:101AE00088B1D1E907379F60D1E907377B60476844
:101AF00001F118039F4201D10B6A4360C1F828C06D
:101B000003685B1E0360C86A0123376983403B4357
:101B1000336100EB80000EEB8000406888608368D2
:101B2000CB6083685A608260C86A00EB80000EEB6D
:101B300080024A615EF82020521C4EF82020C86ABC
:101B40003168C96A88429DD901259BE720000020A1
:101B5000DC04002070B504004FF000003CD01F4DA5
:101B60002968216D491E2165E36CE26A9A4233D0EF
:101B7000002931D1201DFFF7C1FB012130B994F8B4
:101B80002C002A6901FA00F082432A61E06CE062CD
:101B9000C0F12000A061E06A2A69814011432961F7
:101BA0000F4A00EB800002EB80004068A060816873
:101BB000E1608368211D59608160E06A00EB80006C
:101BC00002EB80006061E06A00EB800052F82010B8
:101BD000491C42F82010012070BD000020000020A8
:101BE000DC04002070B5C068C068D0E90732816AA3
:101BF0009A60D0E907235A604B6800F118029342BB
:101C000001D1036A4B60002585620B685B1E0B6087
:101C1000244B596B012499B1234D6968C1618E68C9
:101C200006628E6872608A6085622968491C296034
:101C3000C06A1968C96A884231D90120DC6170BD67
:101C4000D0E902624169B260D0E9022672604E6852
:101C5000021D964201D1C6684E6045610D686D1E39
:101C60000D60C16A1E6904FA01F535431D610F4D0F
:101C700001EB810105EB8101496881608E68C660D6
:101C80008E6872608A60C16A01EB810105EB810296
:101C9000426155F82120521C45F82120C8E7002058
:101CA00070BD00002000002084070020DC0400201C
:101CB0002DE9F047404D0024A146686BFFF76AFB11
:101CC000686B401E6863686B002870D1A868DFF8F5
:101CD000ECC000264FF00108E8BB68E0DCF80C001F
:101CE000C468D4E90721A06A9160D4E90712516061
:101CF000426804F118018A4201D1216A4160A6625A
:101D00000168491E0160D4E9022160699160D4E94B
:101D1000021251604268211D8A4201D1E26842608C
:101D200066610268521E0260E06A2F69434608FA43
:101D300000F23A432A61224A00EB800002EB800065
:101D40004068A0608768E760876879608160E06AC2
:101D500000EB800000E00DE002EB8001616152F8D1
:101D60002010491C42F82010E06A2968C96A88429C
:101D700000D3EB61DCF800000028AFD10CB1FFF715
:101D8000B3F9AC693CB14746FFF75AFE00B1EF61C9
:101D9000641EF9D1AE61E86948B10A494FF080503C
:101DA0004FF001090860BFF34F8FBFF36F8FFFF74C
:101DB00005FB4846BDE8F08720000020840700208E
:101DC000DC04002004ED00E01CB50024FEF72CFF2D
:101DD0000848006860B107491F20091DCDE90001CE
:101DE00000234FF4827204A10548FFF7E7FD044683
:101DF00020461CBD60000020546D722053766300A5
:101E00005D1100084FF04070E1EE100A70470000CD
:101E1000301E0008000000209C000000C4010008E3
:101E2000CC1E00089C000020AC5D0000E001000812
:101E300000000000007A030A00000000000000001B
:101E4000010203040607080900000000000000006A
:101E50000000000000000000000000000000000082
:101E60000000000000000000000000000000000072
:101E70000000000000000000000000000000000062
:101E80001F00000000000000000000000000000033
:101E90000000000000000000000000000000000042
:101EA0000000000000000000000000000000000032
:101EB0000000000000000000000000000000000022
:0C1EC00000000000AAAAAAAA000000006E
:040000050800018965
:00000001FF
